:020000040800F2
:10000000FCFF0020751500006D1500006D15000047
:100010006D1500006D1500006D1500006D150000D8
:100020006D1500006D1500006D1500006D150000C8
:100030006D1500006D1500006D1500006D150000B8
:100040006D1500006D1500006D1500006D150000A8
:100050006D1500006D1500006D1500006D15000098
:100060006D1500006D1500006D1500006D15000088
:100070006D1500006D1500006D1500006D15000078
:100080006D1500006D1500006D1500006D15000068
:100090006D1500006D1500006D1500006D15000058
:1000A0006D1500006D1500006D1500006D15000048
:1000B0006D1500006D1500006D1500006D15000038
:1000C0006D1500006D1500006D1500006D15000028
:1000D0006D1500006D1500006D1500006D15000018
:1000E0006D1500006D1500006D1500006D15000008
:1000F0006D1500006D1500006D1500006D150000F8
:100100006D1500006D1500006D1500006D150000E7
:100110006D1500006D1500006D1500006D150000D7
:100120006D1500006D1500006D1500006D150000C7
:100130006D1500006D1500006D1500006D150000B7
:100140006D1500006D1500006D1500006D150000A7
:1001500001480068704700BF8C00002083B0CDF8D4
:1001600000E000F0FF031A09104603F00F021346E7
:1001700014E0194A02921FE0184A02921CE0184A41
:10018000029219E0174A029216E0174A029213E00F
:10019000164A029210E0164A02920DE00028E8D0BA
:1001A0000128E9D00228EAD00328EBD00428ECD0BB
:1001B0000528EDD00628EED0012212B29A40ADF803
:1001C000042002980A46BDF8041000F067FADDF832
:1001D00000E003B0704700BF00080140000C014080
:1001E000001001400014014000180140001C0140B3
:1001F0000020014082B0CDF800E00346194601918D
:10020000FFF7A6FF40F2E83100FB01F201990A6016
:100210001F490978C1F30311C8B21E4909180878AB
:10022000C0B21A1D1968C140116019490988C1F38B
:10023000022188B2174909180878C0B203F20802EF
:10024000191D0968C140116011490988C1F3C22113
:1002500088B2104909180878C0B203F20C02191DBF
:100260000968C14011600A490988C1F3813188B227
:10027000094909180978C8B203F2100203F20C0107
:100280000968B1FBF0F11160DDF800E002B07047E1
:1002900004100240F81800000819000081B0194944
:1002A00000EA0101084600220EE0042022E00820B6
:1002B00020E010201EE020201CE040201AE08020DA
:1002C00018E040F2001015E00F498842EDD00F49C8
:1002D0008842ECD00E498842EBD00E498842EAD0E1
:1002E0000D498842E9D00D498842E8D00C4988423E
:1002F000E7D010460B49096841EA000209490A6043
:1003000001B0704700FCFFFF00080140000C0140F5
:10031000001001400014014000180140001C014081
:10032000002001401810024081B0CDF800E0012209
:1003300052B23E490A6000F268010B686FF000613A
:1003400003EA0102144603F00061C90E0B4602F0F5
:100350000041B1F1004F02D135490A6801E0354949
:100360000A6804F47021090C0E464FF6FF7104EA86
:1003700001010D4604F44011B1F5401F0DD16FF09D
:10038000706102EA01010E462A490A686FF0706145
:100390000A4028490A60324616E004F48011B1F59B
:1003A000801F09D14FF00301B140C94302EA0101A6
:1003B00041F070610A4607E0610D090105FA01F19B
:1003C000C9430A4042F070622BB1610D090105FA80
:1003D00001F10A43FFE704F00041B1F1004F02D1FF
:1003E00013490A6001E013490A6040F2000A81469D
:1003F0004FEA8A0109EB01010968B1F1FF3F10D012
:1004000009F134014FEA8A03C91809680A4609EB61
:100410000301096808461146FFF7A0FE0AF1010A28
:10042000E6E7DDF800E001B0704700BF000342429C
:100430001C0001400400014089B0CDF800E0834673
:1004400098B28C46BDF824100A9E04ACADF8041096
:10045000ADF808002046FFF7CDFEBDF80800BDF856
:100460000410644CA34512D101256DB2624C256085
:10047000624D634C2560634D634C2560634D644C55
:100480002560644D644C2560079C039456E0634CE2
:10049000A34512D101256DB2614C2560614D584CC8
:1004A0002560614D584C2560604D594C2560604D6C
:1004B000594C2560069C039440E05E4CA34512D144
:1004C00001256DB25C4C25605C4D4D4C25605C4D4A
:1004D0004D4C25605B4D4E4C25605B4D4E4C256070
:1004E000069C03942AE0594CA34512D101256DB214
:1004F000574C2560574D424C2560574D424C256066
:10050000564D434C2560564D434C2560069C039444
:1005100014E0544CA34511D101256DB2524C256015
:10052000524D374C2560524D374C2560514D384C5B
:100530002560514D384C2560069C0394ADF804109D
:10054000ADF808003046FFF7EFFEBDF80800BDF833
:1005500004100BF1100500242C600BF110052C6821
:100560000C432C600BF10C0500242C6018B140F4F6
:10057000806080B2FFE70BF10C052C6804432C600F
:100580000BF10C060125346865F34D3434600BF132
:100590000C060125346865F3C30434600BF10C06C6
:1005A0000125346865F3820434600BF114050024DE
:1005B0002C60039D192465434FEA8C04B5FBF4F7C6
:1005C0006424B7FBF4F42601350964246C433C1B16
:1005D000240104F232056424B5FBF4F404F00F04A2
:1005E00046EA04040BF10805A4B22C60DDF800E033
:1005F00009B070470038014038034242990A0000B0
:10060000900000205D120000840000200111000015
:100610007C000020E910000094000020004400400D
:10062000C40342427D0A0000191100004911000074
:100630003111000000480040C8034242B50A0000E2
:100640003D1300006D13000055130000004C0040E6
:10065000CC034242F50800009D1300008513000002
:10066000A112000000500040D0034242D90800000F
:1006700089120000B91200002513000081B0ADF806
:1006800000100146BDF800000B68C3F3C01202B9A8
:10069000FAE70A1D106001B07047FFFF81B0CDF886
:1006A00000E08CB21546774B00EA03031E4618465D
:1006B000FFF7F4FDB4F1FF0F0CD1734B9D4203D152
:1006C0004FF033333360D9E0422D03D14FF0443340
:1006D0003360D3E04FF6FF739C4214D16A4B9D42C6
:1006E00007D14FF033333360341D4FF03333236081
:1006F000C4E0422D07D14FF044333360341D4FF036
:1007000044332360BAE00021002005F001030BB15F
:1007100000211DE005F0020333B105F4C0730BB1F5
:10072000082100E0042113E005F0040333B105F0D3
:1007300020030BB1042100E0002109E005F00803CB
:1007400033B105F020030BB10C2100E00821FFE7D5
:100750004E4B05EA03030BB1032009E005F40073D7
:100760000BB1022004E005F480630BB10120FFE728
:1007700005F00C030BB10143FFE704F0FF039BB24C
:10078000002B3BD0376800201FFA84F832462E46F3
:1007900008282CD24FF0010303FA00F408EA0403FE
:1007A000A34222D185004FF00F03AB40DB4307EAA1
:1007B000030401FA05F344EA03031D4606F48173BA
:1007C000B3F5817F05D102F214044FF00103834099
:1007D000236006F08203822B05D102F210044FF051
:1007E0000103834023602F46FFE7401CD0E71760DA
:1007F0001FFA88F00F463146164602E00F4629469A
:10080000A0B2B0F1FF0F39D9331DD3F80080002218
:10081000082A30D202F208044FF0010303FA04F46C
:1008200000EA0403A34224D195004FF00F03AB402C
:10083000DB4308EA030807FA05F348EA030801F472
:100840008173B3F5817F07D106F2140502F2080423
:100850004FF00103A3402B6001F08203822B07D1EC
:1008600006F2100502F208044FF00103A3402B60CA
:10087000FFE7521CCCE7331DC3F80080DDF800E031
:1008800001B0704700FCFFFF1400080000080800DA
:1008900001490860704700BFA80122420149086071
:1008A000704700BFAC01224201490860704700BF99
:1008B000B881224201490860704700BF940121427B
:1008C00001490860704700BF8C012242014908605D
:1008D000704700BFB001224281B0CDF800E081B284
:1008E0000348FFF7CBFEDDF800E001B0704700BF22
:1008F0000050004081B0CDF800E081B20348FFF71E
:10090000BDFEDDF800E001B0704700BF004C0040C4
:1009100001490860704700BF900121420149086009
:10092000704700BFB081224201490860704700BF94
:10093000AC81224201490860704700BFA081224279
:1009400001490860704700BF988121420149086051
:10095000704700BFA481224201490860704700BF70
:100960008001214201490860704700BFA8812242EE
:1009700001490860704700BF9C812142014908601D
:10098000704700BFB481224201490860704700BF30
:100990008801224201490860704700BFA801224235
:1009A00001490860704700BFB00122420149086058
:1009B000704700BFAC01224281B0CDF800E04FF09B
:1009C000420289B2FFF76AFEDDF800E001B070472D
:1009D00081B0CDF800E0019D2C4610B408B493B26C
:1009E0008AB201460348FFF727FD02B0DDF800E0B8
:1009F00001B070470038014001490860704700BFEE
:100A00009881214281B0CDF800E0044A89B2FFF715
:100A100045FEDDF800E001B0704700BF140008009B
:100A200001490860704700BF9481224281B0CDF82F
:100A300000E0019D2C4610B408B493B28AB201467E
:100A40000348FFF7F9FC02B0DDF800E001B07047A1
:100A50000048004081B0CDF800E0019D2C4610B464
:100A600008B493B28AB201460348FFF7E5FC02B02E
:100A7000DDF800E001B070470044004081B0CDF8DF
:100A800000E081B20348FFF7F9FDDDF800E001B0B6
:100A9000704700BF0044004081B0CDF800E081B253
:100AA0000348FFF7EBFDDDF800E001B0704700BF41
:100AB0000038014081B0CDF800E081B20348FFF773
:100AC000DDFDDDF800E001B0704700BF00480040E8
:100AD00001490860704700BF9C81214201490860BC
:100AE000704700BF9881224281B0CDF800E0A9E0B4
:100AF000012905D140F220016548FFF75DFF04E0C0
:100B000040F220016248FFF77DFFBBE0012905D1DB
:100B100040F208015F48FFF74FFF04E040F2080190
:100B20005C48FFF76FFFADE0012905D144F20001F9
:100B30005948FFF741FF04E044F200015648FFF72F
:100B400061FF9FE0012905D140F200415148FFF7C4
:100B500033FF04E040F200414E48FFF753FF91E0BD
:100B6000012905D140F600014A48FFF725FF04E0BE
:100B700040F600014748FFF745FF83E0012905D112
:100B800041F200014348FFF717FF04E041F2000182
:100B90004048FFF737FF75E0012905D141F2000118
:100BA0003D48FFF709FF04E041F200013A48FFF732
:100BB00029FF67E0012905D140F600013648FFF71B
:100BC000FBFE04E040F600013348FFF71BFF59E04D
:100BD000012905D140F240012F48FFF7EDFE04E066
:100BE00040F240012C48FFF70DFF4BE0012905D1F1
:100BF00040F220012848FFF7DFFE04E040F2200128
:100C00002548FFF7FFFE3DE0012905D140F24001F4
:100C10002248FFF7D1FE04E040F240011F48FFF7F1
:100C2000F1FE2FE0012905D140F280011B48FFF7BA
:100C3000C3FE04E040F280011848FFF7E3FE21E024
:100C4000012020E000283FF453AF01283FF45EAFBD
:100C500002283FF469AF03283FF474AF04283FF43F
:100C60007FAF05283FF48AAF06283FF495AF0728E9
:100C7000A0D00828ACD00928B8D00A28C4D00B28A6
:100C8000D0D0DDE70020DDF800E001B0704700BF04
:100C9000000801400010014000140140000C014018
:100CA00081B0CDF800E0A9E0012905D140F21001A2
:100CB0006548FFF781FE04E040F210016248FFF74B
:100CC000A1FEBBE0012905D140F204015F48FFF716
:100CD00073FE04E040F204015C48FFF793FEADE0D0
:100CE000012905D142F200015948FFF765FE04E0F1
:100CF00042F200015648FFF785FE9FE0012905D129
:100D000040F200415148FFF757FE04E040F2004135
:100D10004E48FFF777FE91E0012905D140F600012A
:100D20004A48FFF749FE04E040F600014748FFF754
:100D300069FE83E0012905D141F200014348FFF734
:100D40003BFE04E041F200014048FFF75BFE75E026
:100D5000012905D140F201013B48FFF72DFE04E0D7
:100D600040F201013848FFF74DFE67E0012905D147
:100D700040F200413648FFF71FFE04E040F2004118
:100D80003348FFF73FFE59E0012905D140F2002129
:100D90002F48FFF711FE04E040F200212C48FFF736
:100DA00031FE4BE0012905D140F200112848FFF740
:100DB00003FE04E040F200112548FFF723FE3DE06A
:100DC000012905D140F240012248FFF7F5FD04E07A
:100DD00040F240011F48FFF715FE2FE0012905D121
:100DE00040F280011B48FFF7E7FD04E040F280017C
:100DF0001848FFF707FE21E0012020E000283FF41B
:100E000053AF01283FF45EAF02283FF469AF0328D7
:100E10003FF474AF04283FF47FAF05283FF48AAF56
:100E200006283FF495AF0728A0D00828ACD00928A1
:100E3000B8D00A28C4D00B28D0D0DDE70020DDF8D8
:100E400000E001B0704700BF000801400010014001
:100E500000140140000C014081B0CDF800E00128F1
:100E600004D100200C4C2468A04710E0022804D1D3
:100E700000200A4C2468A04709E0032807D100207D
:100E8000064C2468A0470020034C2468A047DDF8E6
:100E900000E001B0704700BF980000209C000020D7
:100EA00081B0CDF800E0012804D101200C4C246869
:100EB000A04710E0022804D101200A4C2468A04772
:100EC00009E0032807D10120064C2468A04701202F
:100ED000034C2468A047DDF800E001B0704700BF74
:100EE000980000209C00002081B0CDF800E0094966
:100EF00002B440F2000340F2000240F20001FFF7AA
:100F0000A9FD01B0044A05490A600020DDF800E0AF
:100F100001B070472C1800007D0A000088000020F6
:100F200081B00268C2F3401101B9FAE7011D0968F6
:100F300088B201B07047FFFF81B0CDF800E00178C2
:100F4000CCB2A0B2034C2468A0470020DDF800E03A
:100F500001B070478800002000F208010A680349C8
:100F60000A60011D0A6802490A6070479C0000205F
:100F70009800002081B00168C1F3401001B07047B3
:100F800081B0CDF800E0094902B440F2000340F21C
:100F9000000240F20001FFF75DFD01B0044A05497F
:100FA0000A600020DDF800E001B070472C18000056
:100FB0007D0A00008800002081B0CDF800E00949DA
:100FC00002B440F2000340F2000240F20001FFF7D9
:100FD0002DFD01B0044A05490A600020DDF800E05B
:100FE00001B0704754170000B50A000088000020C7
:100FF00081B0CDF800E0094902B440F2000340F2AC
:10100000000240F20001FFF7E3FC01B0044A054989
:101010000A600020DDF800E001B07047C017000052
:10102000990A00008800002081B00168C1F3801097
:1010300001B0704781B0CDF800E01348007868B97E
:101040000120FFF72DFF0220FFF72AFF01210E48A4
:1010500001700E48022100F0C9F810E00A4800783B
:1010600001280CD10120FFF7F7FE0220FFF7F4FE64
:101070000021054801700648022100F0B7F8DDF8AC
:1010800000E001B0704700BF1800002019000020E8
:101090002300002081B0CDF800E01048007850B95E
:1010A0000220FFF7FDFE01210C4801700C480221CF
:1010B00000F09CF80DE009480078012809D10220D1
:1010C000FFF7CAFE0021054801700648022100F022
:1010D0008DF8DDF800E001B0704700BF000000208F
:1010E000010000200C00002081B0CDF800E0034892
:1010F000FFF79AFFDDF800E001B0704700380140CB
:1011000081B0CDF800E00348FFF734FFDDF800E0E0
:1011100001B070470038014081B0CDF800E00348CD
:10112000FFF7FEFEDDF800E001B07047004400402C
:1011300081B0CDF800E00348FFF776FFDDF800E06E
:1011400001B070470044004081B0CDF800E0034892
:10115000FFF710FFDDF800E001B0704700440040E9
:1011600081B0CDF800E011E00846FFF725FF16E05A
:101170000846FFF705FF12E00846FFF739FF0EE0CB
:101180000846FFF7B1FE0AE0012008E00028EBD096
:101190000128EDD02028EFD03028F1D0F4E7DDF899
:1011A00000E001B07047FFFF81B0CDF800E05FFACA
:1011B00081F95FFA82FA0FE05FFA8AF15FFA89F04B
:1011C000FFF76EFD0DE05FFA8AF15FFA89F0FFF735
:1011D0008BFC06E0012004E00028EDD00128F2D0CD
:1011E000F8E7DDF800E001B07047FFFF83B0CDF80D
:1011F00000E0024610460D228DF808200A228DF8E4
:1012000009201FE0FFF798FE23E002782AB1019041
:10121000FFF792FE0198401CF7E71AE002782AB126
:101220000190FFF789FE0198401CF7E702AA1046DB
:10123000FFF782FE0DF109021046FFF77DFE08E080
:10124000062007E00029DDD00129DED00229E5D003
:10125000F6E70020DDF800E003B0704781B0CDF87C
:1012600000E00348FFF75CFEDDF800E001B07047E6
:101270000038014081B0CDF800E0FFF76DFEDDF8E9
:1012800000E001B07047FFFF81B0CDF800E00348F7
:10129000FFF746FEDDF800E001B070470050004067
:1012A00081B0CDF800E00348FFF7BEFEDDF800E0B6
:1012B00001B07047004C004081B0CDF800E0034819
:1012C000FFF758FEDDF800E001B070470050004025
:1012D00081B0CDF800E01048007850B90120FFF748
:1012E000DFFD01210C4801700C480221FFF77EFF51
:1012F0000DE009480078012809D10120FFF7ACFD75
:1013000000210548017006480221FFF76FFFDDF854
:1013100000E001B0704700BF4400002045000020FD
:101320005000002081B0CDF800E00348FFF77CFEBC
:10133000DDF800E001B070470050004081B0CDF80A
:1013400000E00348FFF7ECFDDDF800E001B0704776
:101350000048004081B0CDF800E00348FFF764FE8C
:10136000DDF800E001B070470048004081B0CDF8E2
:1013700000E00348FFF7FEFDDDF800E001B0704734
:101380000048004081B0CDF800E00348FFF7F2FDCF
:10139000DDF800E001B07047004C004081B0CDF8AE
:1013A00000E00348FFF7BCFDDDF800E001B0704746
:1013B000004C004081B04FF000094FF0000CBDEB35
:1013C0000A0F04DCBDEB0B0F01DBD446EA464BF8F9
:1013D000049BBBEB0A0FFAD1BCEB0A0F05DDE2461A
:1013E000D9F800B00BF1040BF1E701B07047FFFF33
:1013F00081B01548006840F00101134801601349AD
:101400001348016010480168124801400E4801600D
:101410000D4801686FF4802001400B4801600C48C2
:1014200001686FF4FE000140094801600648016848
:101430006FF0A0500140044801604FF000010648E1
:10144000016001B0704700BF001002400000FFF0D3
:1014500004100240FFFFF6FE2C10024081B01CF881
:10146000019B0BF8019BBBEB0A0FF8D101B0704751
:1014700081B0CDF800E0164C2468A04715490870EB
:10148000C4B2002C20D0144C2468A0471349087023
:101490000DE0FFF71DFF17E0FFF7FCFD14E0FFF77D
:1014A000C9FD11E00E480221FFF7A0FE0CE00B4839
:1014B00000783128EDD0094800783228ECD0074870
:1014C00000783328EBD0EDE7DDF800E001B070479D
:1014D0007C0000207B000020840000208000002091
:1014E0005C00002081B0CDF800E00548FFF7C2FEA7
:1014F00004480221FFF77AFEDDF800E001B07047F2
:10150000981800002E00002081B0CDF800E00022E5
:1015100001210020FFF748FE002202210020FFF7F2
:1015200043FE42F280512020FFF71AFE44F67F77F7
:10153000C0F2120700BF00BF7F1EFDD100BF00BF79
:1015400000BF04480221FFF751FEDDF800E001B0C2
:10155000704700BF6A00002081B002490248016064
:1015600001B07047401901008C00002081B0FEE7F7
:1015700001B0704700F00EF800F008FAFFF7ECFF3A
:1015800000F0C4F9FFF7C0FFFFF7ACFFFFF770FFF3
:10159000FCE7FEE781B0CDF800E0464A464B474CF9
:1015A00047494BF68030814206D94648006840F0F2
:1015B00002014448016011E045F6C050814206D95D
:1015C0004048006840F001013E48016006E03D48A7
:1015D00001686FF0070001403A480160FFF708FF1B
:1015E0003948036039480460394802EA0001394843
:1015F000016002F0010040B119463648006800F071
:101600000200002800D1F8E700E0194602F480301B
:1016100040B10B462F48006800F40030002800D18C
:10162000F8E700E00B4602F0805068B129480068F6
:1016300040F08051274801602648006800F00050C3
:10164000002800D1F8E7FFE702F0806078B1214878
:10165000006840F080611F48016011461A461D482D
:10166000006800F00060002800D1F8E701E01146B2
:101670001A4601F0807070B11648006840F0807121
:101680001448016011461348006800F0007000B96A
:10169000F9E70A46FFE70C48006800F00C019000EB
:1016A00000F00C00814200D0F5E7DDF800E001B069
:1016B000704700BF8100010502841D00440601003F
:1016C0004019010000200240041002402C1002408A
:1016D000FFFF0F00001002400072656C617920323C
:1016E000206F6E0072656C61792032206F66660033
:1016F0000072656C617973206F6E0072656C617940
:1017000073206F6666006170706C69636174696FE5
:101710006E20696E697420646F6E65000072656C7E
:1017200061792031206F6E0072656C617920312003
:101730006F66660077726F6E6720636F6D6D616EA6
:10174000640073797374656D20696E697420646FC9
:101750006E6500FF3800000039000000FFFFFFFF4A
:101760000000000000000000000000000000000079
:101770000000000000000000000000000000000069
:101780000000000000000000180800001800000021
:101790000000000000000000000000000000000049
:1017A0000000000000000000000000000000000039
:1017B00000000000000000000000000030001408DD
:1017C000090000000A000000FFFFFFFF000000000A
:1017D0000000000000000000000000000000000009
:1017E00000000000000000000000000000000000F9
:1017F00000000000180800001800000000000000B1
:1018000000000000000000000000000000000000D8
:1018100000000000000000000000000000000000C8
:10182000000000000000000004000000350000007F
:1018300036000000FFFFFFFF000000000000000076
:101840000000000000000000000000000000000098
:101850000000000000000000000000000000000088
:101860001808000018000000000000000000000040
:101870000000000000000000000000000000000068
:101880000000000000000000000000000000000058
:10189000000000000800000811090000890900008C
:1018A0007D09000095090000AD090000A1090000B4
:1018B00059090000650900004D09000035090000C4
:1018C0004109000071090000FFFFFFFFFFFFFFFF5C
:1018D000FFFFFFFFFFFFFFFFFFFFFFFFFFFFFFFF18
:1018E000FFFFFFFFFFFFFFFFFFFFFFFFFFFFFFFF08
:1018F000FFFFFFFFFFFFFFFF0000000001020304E6
:1019000001020304060708090204060800B5DFF80F
:1019100014B0DFF814A0DFF814C0FFF79FFD00BD7E
:10192000704700BF000000207B000020D816000098
:10193000FFFFFFFFFFFFFFFFFFFFFFFFFFFFFFFFB7
:10194000FFFFFFFFFFFFFFFFFFFFFFFFFFFFFFFFA7
:10195000FFFFFFFFFFFFFFFFFFFFFFFFFFFFFFFF97
:10196000FFFFFFFFFFFFFFFFFFFFFFFFFFFFFFFF87
:10197000FFFFFFFFFFFFFFFFFFFFFFFFFFFFFFFF77
:10198000FFFFFFFFFFFFFFFFFFFFFFFF00B5DFF8D7
:1019900010B0DFF810A0FFF70DFD00BD704700BFCD
:1019A00000000020A0000020FFFFFFFFFFFFFFFF5F
:00000001FF
